:10000000B5C00000CEC00000CCC00000CAC00000D7
:10001000C8C00000C6C00000C4C00000C2C00000CC
:10002000C0C00000BEC00000BCC0000016C200007E
:100030004CC20000B6C00000B4C00000B2C0000056
:10004000B0C00000AEC00000ACC00000AAC00000FC
:10005000A8C00000A6C00000A4C00000A2C000000C
:10006000A0C000009EC000009CC000009AC000001C
:1000700098C0000096C0000094C0000092C000002C
:1000800090C000008EC000008CC000008AC000003C
:1000900088C0000086C0000000010000D1001200EE
:1000A000020000E30029002200000C011C002100D6
:1000B00000F5000900030000280104010309042CD5
:1000C000011E020309044C011E01C11201C01200ED
:1000D000001201000200000020C01680040001018F
:1000E00002000109022900010100C03209040000D8
:1000F0000203000000092111010001221C00070574
:1001000081031000020705020310000806ABFF0A76
:100110000002A1017508150026FF00951009018154
:1001200002951009029102C0040309041E03410054
:10013000720064007500690067006C006500720061
:1001400020004A0054004100470000001E03420006
:10015000790020005300200054006100680069000D
:100160007200200041006C006900000011241FBED5
:10017000CFEFD2E0DEBFCDBF11E0A0E0B1E0E0E81C
:10018000F7E002C005900D92A030B107D9F711E059
:10019000A0E0B1E001C01D92A331B107E1F702D0A8
:1001A000EDC22ECF0F931F938AB180638AB98FE778
:1001B00084B985B1807885B980E880936100109218
:1001C000610040D053D08823E9F380E197E220E931
:1001D00031E0F9013197F1F70197D9F705E61BE610
:1001E00083E091E060E045D01816D4F75C988091E8
:1001F0000301843719F485B1807818C0823779F407
:100200005C9A1F9902C080E001C080E880930401DD
:100210005D9883E091E062E3A6D05D9A11C08337D8
:1002200049F4809104018F71880F880F85B910936C
:10023000030102C00093030183E091E062E393D0E5
:100240005C9ACECF80EA8093D80086E089BD09B45D
:1002500000FEFDCF80E88093D8001092E00010925D
:1002600000018CE08093E200789408958091000171
:100270000895DC0180910001882309F472C09FB7C2
:10028000F8946093010182E08093E90022E080917C
:10029000E80085FD10C09FBF80910101882309F40B
:1002A00061C080910001882309F45BC09FB7F89476
:1002B0002093E900ECCF8091F100FD0181938091C2
:1002C000F10011968C93DF0111968091F1008183EA
:1002D000FD0131968091F10011968C93DF0111960A
:1002E0008091F1008183FD0131968091F10011969A
:1002F0008C93DF0111968091F1008183FD0131968D
:100300008091F10011968C93DF0111968091F1009C
:100310008183FD0131968091F10011968C93DF016C
:1003200011968091F1008183FD0131968091F10059
:1003300011968C93DF0111968091F1008183FD016C
:1003400031968091F10011968C938091F100818318
:100350008091F10082838BE68093E8009FBF80E16B
:1003600008958FEF0895DC0180910001882309F43E
:1003700072C09FB7F8946093020181E08093E90016
:1003800021E08091E80085FD10C09FBF80910201AF
:10039000882309F461C080910001882309F45BC0BF
:1003A0009FB7F8942093E900ECCFFD0181918093F1
:1003B000F10011968C918093F100DF0111968181FB
:1003C0008093F100FD01319611968C918093F1009C
:1003D000DF01119681818093F100FD013196119624
:1003E0008C918093F100DF01119681818093F1005F
:1003F000FD01319611968C918093F100DF011196E9
:1004000081818093F100FD01319611968C9180934A
:10041000F100DF01119681818093F100FD01319699
:1004200011968C918093F100DF0111968181809368
:10043000F100FD01319611968C918093F10081813C
:100440008093F10082818093F1008AE38093E80039
:100450009FBF80E108958FEF08951F920F920FB60E
:100460000F9211248F939F938091E1001092E100ED
:10047000982F93FF0FC01092E90081E08093EB006A
:100480001092EC0082E28093ED0088E08093F0000F
:100490001092000192FF12C080910001882371F038
:1004A00080910101882319F081508093010180918E
:1004B0000201882319F08150809302019F918F914E
:1004C0000F900FBE0F901F9018951F920F920FB6AE
:1004D0000F9211240F931F932F933F934F935F938A
:1004E0006F937F938F939F93AF93BF93EF93FF93FC
:1004F0001092E9008091E80083FF2AC14091F10049
:100500003091F1008091F100A82FB0E02091F1002E
:10051000922F80E0A82BB92B8091F100682F70E01A
:100520002091F100922F80E0682B792B1091F1003F
:100530000091F10082EF8093E800363009F05AC054
:100540002FE930E0A90145505040F90137978591D6
:1005500094918A179B0701F5FA018591949186176A
:100560009707D1F49A012E5F3F4FF901659174917D
:100570002E5F3F4FF9014491212F30E0902F80E012
:10058000282B392B2F3F310519F010F02FEF30E0D9
:10059000241758F4422F09C0295F3F4F495F5F4F2E
:1005A000F0E0203D3F0789F6D3C05EEF8091E80080
:1005B000282F30E0C90185709070892BB9F322FD96
:1005C000CAC0342F413208F030E2232FCB0106C0DD
:1005D000FC010196E491E093F10021502223C1F740
:1005E000630F711D431B5093E8004423F9F630322A
:1005F000E9F2B1C0353061F48EEF8093E80080916C
:10060000E80080FFFCCF8A2F80688093E300A3C0BE
:10061000393031F5442309F071C0A09300018EEF09
:100620008093E80021E089EC90E02093E900FC0150
:100630000196E491E093EB00EE2369F0AC014F5F8B
:100640005F4FFC0184918093EC00CA010196FA018E
:1006500034913093ED002F5F253039F78EE149C09A
:10066000383061F4403809F049C08091E80080FFDB
:10067000FCCF809100018093F10066C03323D1F458
:100680008091E80080FFFCCF423811F080E00DC07F
:100690006093E9008091EB0090E025E096958795C6
:1006A0002A95E1F781701092E9008093F100109291
:1006B000F1004AC0313011F0333001F54230F1F42D
:1006C000AB2BE1F4262F2F77822F81508430B0F4AA
:1006D0008EEF8093E8002093E9003330C9F189E17F
:1006E0008093EB0081E090E002C0880F991F2A956B
:1006F000E2F78093EA001092EA002DC0672B41F5E3
:10070000413A99F4313021F58091E800282F30E00A
:10071000C90185709070892BB9F322FD1CC080E15E
:100720001092F1008150E1F70FC0413289F4393065
:1007300079F48091E80082FFFCCF8BEF8093E80092
:100740008091E80080FFFCCF8EEF8093E80003C02B
:1007500081E28093EB00FF91EF91BF91AF919F9168
:100760008F917F916F915F914F913F912F911F9149
:100770000F910F900FBE0F901F901895F894FFCF18
:00000001FF
